:020000040800F2
:10000000800400209504000819050008190500085F
:10001000190500081905000819050008000000006E
:1000200000000000000000000000000019050008AA
:10003000190500080000000019050008190500084E
:100040001905000819050008190500081905000818
:10005000000000001905000819050008190500082E
:1000600019050008190500081905000819050008F8
:1000700019050008190500081905000819050008E8
:1000800019050008190500081905000819050008D8
:1000900019050008190500081905000819050008C8
:1000A00019050008190500081905000819050008B8
:1000B00019050008190500081905000819050008A8
:1000C0001905000819050008190500081905000898
:1000D0001905000819050008190500081905000888
:1000E0001905000819050008190500081905000878
:1000F0001905000819050008190500081905000868
:100100001905000819050008190500081905000857
:100110001905000819050008190500081905000847
:100120001905000819050008190500081905000837
:100130001905000819050008190500081905000827
:100140001905000819050008190500081905000817
:100150001905000819050008190500081905000807
:1001600019050008190500081905000819050008F7
:1001700019050008190500081905000819050008E7
:10018000190500081905000880B487B000AFF860B1
:100190000B467A607B8100237B6100233B61002357
:1001A0007B618BE07A897B6942FA03F303F00103F8
:1001B000002B00F080807B69072B0BD8FB681B6845
:1001C0007A6992000F2101FA02F2D2431A40FB68C9
:1001D0001A600BE0FB685B687A69083A92000F21AD
:1001E00001FA02F2D2431A40FB685A607B68072B7F
:1001F0003DD801A252F823F0370200081902000886
:100200001F020008250200082B0200083102000826
:10021000570200083D02000803233B6127E0072343
:100220003B6124E00B233B6121E00F233B611EE097
:1002300000233B611BE004233B6118E008233B6182
:10024000FB68DB6801217A6901FA02F2D2431A40A5
:10025000FB68DA600BE008233B61FB68DB68012187
:100260007A6901FA02F21A43FB68DA6000BF7B6820
:10027000002B07D07B68052B04D07B68072B01D0AF
:100280007B68062B7B69072B0AD8FB681A687B6999
:100290009B00396901FA03F31A43FB681A600AE00C
:1002A000FB685A687B69083B9B00396901FA03F3D4
:1002B0001A43FB685A607B6901337B617B690F2BB2
:1002C0007FF670AF00BF00BF1C37BD4680BC7047D3
:1002D00080B483B000AF78600B467B8013467B70A0
:1002E0007B78002B03D07A887B681A6102E07A88D9
:1002F0007B685A6100BF0C37BD4680BC704780B434
:1003000083B000AF78600B467B807B689A687B88FF
:100310001340002B14BF01230023DBB218460C3717
:10032000BD4680BC704700BF80B400AF264A13684A
:1003300043F48033136000BF234B1B68C3F3404377
:10034000DBB2002BF8D0214A1368022161F30203CB
:1003500013601D4A536843F4803353601A4A53684C
:10036000072161F395435360174A136843F0807384
:10037000136000BF144B1B68C3F34063DBB2002B58
:10038000F8D0114A53686FF3071353600E4A53684D
:10039000042161F30A2353600B4A53686FF3CD23A2
:1003A0005360094A5368022161F30103536000BF9F
:1003B000054B5B68C3F38103DBB2022BF8D100BFAE
:1003C00000BFBD4680BC70470010024000200240C4
:1003D00080B400AF044A936943F00403936100BF03
:1003E000BD4680BC704700BF0010024080B400AF23
:1003F000044A936943F00803936100BFBD4680BC83
:10040000704700BF0010024080B400AF044A9369F7
:1004100043F01003936100BFBD4680BC704700BF2E
:100420000010024080B485B000AF78600023FB600C
:1004300008E000BF7B685A1E7A60002BFAD1FB6887
:100440000133FB60FB68B3F57A7FF2D300BF00BFD6
:100450001437BD4680BC704780B500AFFFF7B8FFCA
:10046000012201210A48FFF78FFE012201210848DD
:10047000FFF72EFF4FF47A70FFF7D4FF002201211F
:100480000348FFF725FF4FF47A70FFF7CBFFECE747
:100490000008014080B586B000AF1A4A1A4BD31A43
:1004A0007B60194B7B61194B3B610023FB600AE0C9
:1004B0003A69531C3B617B69591C796112781A7047
:1004C000FB680133FB60FA687B689A42F0D3104AFC
:1004D000104BD31A7B600F4B7B610023BB6007E09E
:1004E0007B695A1C7A6100221A70BB680133BB60B9
:1004F000BA687B689A42F3D3FFF7AEFF00BF1837A4
:10050000BD4680BD0000002000000020200500083E
:10051000000000200000002080B400AFFEE700BF14
:040000050800049556
:00000001FF
